{
  "contractName": "Grades",
  "abi": [
    {
      "inputs": [],
      "stateMutability": "nonpayable",
      "type": "constructor"
    },
    {
      "anonymous": false,
      "inputs": [
        {
          "indexed": true,
          "internalType": "address",
          "name": "previousOwner",
          "type": "address"
        },
        {
          "indexed": true,
          "internalType": "address",
          "name": "newOwner",
          "type": "address"
        }
      ],
      "name": "OwnershipTransferred",
      "type": "event"
    },
    {
      "anonymous": false,
      "inputs": [
        {
          "indexed": false,
          "internalType": "string",
          "name": "",
          "type": "string"
        }
      ],
      "name": "event_review",
      "type": "event"
    },
    {
      "anonymous": false,
      "inputs": [
        {
          "indexed": false,
          "internalType": "bytes32",
          "name": "",
          "type": "bytes32"
        }
      ],
      "name": "reviewed_student",
      "type": "event"
    },
    {
      "inputs": [
        {
          "internalType": "bytes32",
          "name": "",
          "type": "bytes32"
        }
      ],
      "name": "StudentGrades",
      "outputs": [
        {
          "internalType": "uint256",
          "name": "",
          "type": "uint256"
        }
      ],
      "stateMutability": "view",
      "type": "function"
    },
    {
      "inputs": [],
      "name": "owner",
      "outputs": [
        {
          "internalType": "address",
          "name": "",
          "type": "address"
        }
      ],
      "stateMutability": "view",
      "type": "function"
    },
    {
      "inputs": [],
      "name": "renounceOwnership",
      "outputs": [],
      "stateMutability": "nonpayable",
      "type": "function"
    },
    {
      "inputs": [],
      "name": "teacher",
      "outputs": [
        {
          "internalType": "address",
          "name": "",
          "type": "address"
        }
      ],
      "stateMutability": "view",
      "type": "function"
    },
    {
      "inputs": [
        {
          "internalType": "address",
          "name": "newOwner",
          "type": "address"
        }
      ],
      "name": "transferOwnership",
      "outputs": [],
      "stateMutability": "nonpayable",
      "type": "function"
    },
    {
      "inputs": [
        {
          "internalType": "string",
          "name": "_studentId",
          "type": "string"
        },
        {
          "internalType": "uint256",
          "name": "_grade",
          "type": "uint256"
        }
      ],
      "name": "evaluate",
      "outputs": [],
      "stateMutability": "nonpayable",
      "type": "function"
    },
    {
      "inputs": [
        {
          "internalType": "string",
          "name": "_studentId",
          "type": "string"
        }
      ],
      "name": "viewGrades",
      "outputs": [
        {
          "internalType": "uint256",
          "name": "",
          "type": "uint256"
        }
      ],
      "stateMutability": "view",
      "type": "function"
    },
    {
      "inputs": [
        {
          "internalType": "string",
          "name": "_studentId",
          "type": "string"
        }
      ],
      "name": "askForReview",
      "outputs": [],
      "stateMutability": "nonpayable",
      "type": "function"
    },
    {
      "inputs": [],
      "name": "SeeReviews",
      "outputs": [
        {
          "internalType": "string[]",
          "name": "",
          "type": "string[]"
        }
      ],
      "stateMutability": "view",
      "type": "function"
    }
  ],
  "bytecode": "0x608060405234801561001057600080fd5b5061002d61002261007360201b60201c565b61007b60201b60201c565b33600160006101000a81548173ffffffffffffffffffffffffffffffffffffffff021916908373ffffffffffffffffffffffffffffffffffffffff16021790555061013f565b600033905090565b60008060009054906101000a900473ffffffffffffffffffffffffffffffffffffffff169050816000806101000a81548173ffffffffffffffffffffffffffffffffffffffff021916908373ffffffffffffffffffffffffffffffffffffffff1602179055508173ffffffffffffffffffffffffffffffffffffffff168173ffffffffffffffffffffffffffffffffffffffff167f8be0079c531659141344cd1fd0a4f28419497f9722a3daafe3b4186f6b6457e060405160405180910390a35050565b610f7b8061014e6000396000f3fe608060405234801561001057600080fd5b50600436106100935760003560e01c80639a925a5b116100665780639a925a5b1461010c578063b46bff8914610128578063b91312c314610146578063b999f2aa14610164578063f2fde38b1461019457610093565b806339d789c214610098578063715018a6146100c85780637b81880c146100d25780638da5cb5b146100ee575b600080fd5b6100b260048036038101906100ad9190610974565b6101b0565b6040516100bf91906109d6565b60405180910390f35b6100d06101fe565b005b6100ec60048036038101906100e79190610a1d565b610286565b005b6100f6610381565b6040516101039190610aba565b60405180910390f35b61012660048036038101906101219190610974565b6103aa565b005b610130610420565b60405161013d9190610aba565b60405180910390f35b61014e610446565b60405161015b9190610c1f565b60405180910390f35b61017e60048036038101906101799190610c77565b61059b565b60405161018b91906109d6565b60405180910390f35b6101ae60048036038101906101a99190610cd0565b6105b3565b005b600080826040516020016101c49190610d39565b6040516020818303038152906040528051906020012090506000600260008381526020019081526020016000205490508092505050919050565b6102066106ab565b73ffffffffffffffffffffffffffffffffffffffff16610224610381565b73ffffffffffffffffffffffffffffffffffffffff161461027a576040517f08c379a000000000000000000000000000000000000000000000000000000000815260040161027190610dad565b60405180910390fd5b61028460006106b3565b565b61028e6106ab565b73ffffffffffffffffffffffffffffffffffffffff166102ac610381565b73ffffffffffffffffffffffffffffffffffffffff1614610302576040517f08c379a00000000000000000000000000000000000000000000000000000000081526004016102f990610dad565b60405180910390fd5b6000826040516020016103159190610d39565b6040516020818303038152906040528051906020012090508160026000838152602001908152602001600020819055507f1aa9f5d7814ce1bb210b42ae568f8764fc3149e539d73ca6035ceef433c5a21e816040516103749190610ddc565b60405180910390a1505050565b60008060009054906101000a900473ffffffffffffffffffffffffffffffffffffffff16905090565b6003819080600181540180825580915050600190039060005260206000200160009091909190915090805190602001906103e5929190610777565b507f36544513d3f44f1ca48268a6e375423a987e5f17a2bd232e13528066154a388c816040516104159190610e30565b60405180910390a150565b600160009054906101000a900473ffffffffffffffffffffffffffffffffffffffff1681565b60606104506106ab565b73ffffffffffffffffffffffffffffffffffffffff1661046e610381565b73ffffffffffffffffffffffffffffffffffffffff16146104c4576040517f08c379a00000000000000000000000000000000000000000000000000000000081526004016104bb90610dad565b60405180910390fd5b6003805480602002602001604051908101604052809291908181526020016000905b8282101561059257838290600052602060002001805461050590610e81565b80601f016020809104026020016040519081016040528092919081815260200182805461053190610e81565b801561057e5780601f106105535761010080835404028352916020019161057e565b820191906000526020600020905b81548152906001019060200180831161056157829003601f168201915b5050505050815260200190600101906104e6565b50505050905090565b60026020528060005260406000206000915090505481565b6105bb6106ab565b73ffffffffffffffffffffffffffffffffffffffff166105d9610381565b73ffffffffffffffffffffffffffffffffffffffff161461062f576040517f08c379a000000000000000000000000000000000000000000000000000000000815260040161062690610dad565b60405180910390fd5b600073ffffffffffffffffffffffffffffffffffffffff168173ffffffffffffffffffffffffffffffffffffffff16141561069f576040517f08c379a000000000000000000000000000000000000000000000000000000000815260040161069690610f25565b60405180910390fd5b6106a8816106b3565b50565b600033905090565b60008060009054906101000a900473ffffffffffffffffffffffffffffffffffffffff169050816000806101000a81548173ffffffffffffffffffffffffffffffffffffffff021916908373ffffffffffffffffffffffffffffffffffffffff1602179055508173ffffffffffffffffffffffffffffffffffffffff168173ffffffffffffffffffffffffffffffffffffffff167f8be0079c531659141344cd1fd0a4f28419497f9722a3daafe3b4186f6b6457e060405160405180910390a35050565b82805461078390610e81565b90600052602060002090601f0160209004810192826107a557600085556107ec565b82601f106107be57805160ff19168380011785556107ec565b828001600101855582156107ec579182015b828111156107eb5782518255916020019190600101906107d0565b5b5090506107f991906107fd565b5090565b5b808211156108165760008160009055506001016107fe565b5090565b6000604051905090565b600080fd5b600080fd5b600080fd5b600080fd5b6000601f19601f8301169050919050565b7f4e487b7100000000000000000000000000000000000000000000000000000000600052604160045260246000fd5b61088182610838565b810181811067ffffffffffffffff821117156108a05761089f610849565b5b80604052505050565b60006108b361081a565b90506108bf8282610878565b919050565b600067ffffffffffffffff8211156108df576108de610849565b5b6108e882610838565b9050602081019050919050565b82818337600083830152505050565b6000610917610912846108c4565b6108a9565b90508281526020810184848401111561093357610932610833565b5b61093e8482856108f5565b509392505050565b600082601f83011261095b5761095a61082e565b5b813561096b848260208601610904565b91505092915050565b60006020828403121561098a57610989610824565b5b600082013567ffffffffffffffff8111156109a8576109a7610829565b5b6109b484828501610946565b91505092915050565b6000819050919050565b6109d0816109bd565b82525050565b60006020820190506109eb60008301846109c7565b92915050565b6109fa816109bd565b8114610a0557600080fd5b50565b600081359050610a17816109f1565b92915050565b60008060408385031215610a3457610a33610824565b5b600083013567ffffffffffffffff811115610a5257610a51610829565b5b610a5e85828601610946565b9250506020610a6f85828601610a08565b9150509250929050565b600073ffffffffffffffffffffffffffffffffffffffff82169050919050565b6000610aa482610a79565b9050919050565b610ab481610a99565b82525050565b6000602082019050610acf6000830184610aab565b92915050565b600081519050919050565b600082825260208201905092915050565b6000819050602082019050919050565b600081519050919050565b600082825260208201905092915050565b60005b83811015610b3b578082015181840152602081019050610b20565b83811115610b4a576000848401525b50505050565b6000610b5b82610b01565b610b658185610b0c565b9350610b75818560208601610b1d565b610b7e81610838565b840191505092915050565b6000610b958383610b50565b905092915050565b6000602082019050919050565b6000610bb582610ad5565b610bbf8185610ae0565b935083602082028501610bd185610af1565b8060005b85811015610c0d5784840389528151610bee8582610b89565b9450610bf983610b9d565b925060208a01995050600181019050610bd5565b50829750879550505050505092915050565b60006020820190508181036000830152610c398184610baa565b905092915050565b6000819050919050565b610c5481610c41565b8114610c5f57600080fd5b50565b600081359050610c7181610c4b565b92915050565b600060208284031215610c8d57610c8c610824565b5b6000610c9b84828501610c62565b91505092915050565b610cad81610a99565b8114610cb857600080fd5b50565b600081359050610cca81610ca4565b92915050565b600060208284031215610ce657610ce5610824565b5b6000610cf484828501610cbb565b91505092915050565b600081905092915050565b6000610d1382610b01565b610d1d8185610cfd565b9350610d2d818560208601610b1d565b80840191505092915050565b6000610d458284610d08565b915081905092915050565b600082825260208201905092915050565b7f4f776e61626c653a2063616c6c6572206973206e6f7420746865206f776e6572600082015250565b6000610d97602083610d50565b9150610da282610d61565b602082019050919050565b60006020820190508181036000830152610dc681610d8a565b9050919050565b610dd681610c41565b82525050565b6000602082019050610df16000830184610dcd565b92915050565b6000610e0282610b01565b610e0c8185610d50565b9350610e1c818560208601610b1d565b610e2581610838565b840191505092915050565b60006020820190508181036000830152610e4a8184610df7565b905092915050565b7f4e487b7100000000000000000000000000000000000000000000000000000000600052602260045260246000fd5b60006002820490506001821680610e9957607f821691505b60208210811415610ead57610eac610e52565b5b50919050565b7f4f776e61626c653a206e6577206f776e657220697320746865207a65726f206160008201527f6464726573730000000000000000000000000000000000000000000000000000602082015250565b6000610f0f602683610d50565b9150610f1a82610eb3565b604082019050919050565b60006020820190508181036000830152610f3e81610f02565b905091905056fea26469706673582212207db53414e85e4a3ef8f7643bff84f6d75752162c9f23ef268f556bb2d57add3e64736f6c634300080a0033",
  "immutableReferences": {},
  "source": "//SPDX-License-Identifier: MIT\n\npragma solidity >=0.6.0;\npragma experimental ABIEncoderV2;\n\nimport \"@openzeppelin/contracts/access/Ownable.sol\";\n\ncontract Grades is Ownable {\n    // Teacher address\n    address public teacher;\n    //mapping\n    mapping(bytes32 => uint256) public StudentGrades;\n    //array\n    string[] reviews;\n    //events\n    event reviewed_student(bytes32);\n    event event_review(string);\n\n    //Constructor\n    constructor() {\n        teacher = msg.sender;\n    }\n\n    // evaluate student\n    function evaluate(string memory _studentId, uint256 _grade)\n        public\n        onlyOwner\n    {\n        //student identification hash\n        bytes32 hash_studentId = keccak256(abi.encodePacked(_studentId));\n        // hash => studen Id\n        StudentGrades[hash_studentId] = _grade;\n        // emit event\n        emit reviewed_student(hash_studentId);\n    }\n\n    //view the Grades\n    function viewGrades(string memory _studentId)\n        public\n        view\n        returns (uint256)\n    {\n        bytes32 hash_studentId = keccak256(abi.encodePacked(_studentId));\n        // return the grade\n        uint256 studentGrade = StudentGrades[hash_studentId];\n        return studentGrade;\n    }\n\n    // request grade reviews\n    function askForReview(string memory _studentId) public {\n        reviews.push(_studentId);\n        // store the student identity into an array\n        emit event_review(_studentId);\n    }\n\n    // see request for reviewa\n    function SeeReviews() public view onlyOwner returns (string[] memory) {\n        return reviews;\n    }\n}\n",
  "sourcePath": "/home/cromewar/Smartcontracts/university_truffle/contracts/Grades.sol",
  "compiler": {
    "name": "solc",
    "version": "0.8.10+commit.fc410830.Emscripten.clang"
  },
  "schemaVersion": "3.4.4",
  "updatedAt": "2022-01-07T19:00:41.058Z",
  "devdoc": {
    "kind": "dev",
    "methods": {
      "owner()": {
        "details": "Returns the address of the current owner."
      },
      "renounceOwnership()": {
        "details": "Leaves the contract without owner. It will not be possible to call `onlyOwner` functions anymore. Can only be called by the current owner. NOTE: Renouncing ownership will leave the contract without an owner, thereby removing any functionality that is only available to the owner."
      },
      "transferOwnership(address)": {
        "details": "Transfers ownership of the contract to a new account (`newOwner`). Can only be called by the current owner."
      }
    },
    "version": 1
  },
  "userdoc": {
    "kind": "user",
    "methods": {},
    "version": 1
  }
}